{
  "contractName": "DeFiEx",
  "abi": [
    {
      "inputs": [],
      "stateMutability": "nonpayable",
      "type": "constructor"
    },
    {
      "inputs": [],
      "name": "noOfStoredRates",
      "outputs": [
        {
          "internalType": "uint256",
          "name": "",
          "type": "uint256"
        }
      ],
      "stateMutability": "view",
      "type": "function"
    },
    {
      "inputs": [],
      "name": "createRate",
      "outputs": [],
      "stateMutability": "nonpayable",
      "type": "function"
    },
    {
      "inputs": [
        {
          "internalType": "uint256",
          "name": "x",
          "type": "uint256"
        }
      ],
      "name": "deleteRateByIndex",
      "outputs": [],
      "stateMutability": "nonpayable",
      "type": "function"
    },
    {
      "inputs": [
        {
          "internalType": "uint256",
          "name": "x",
          "type": "uint256"
        }
      ],
      "name": "readRateByIndex",
      "outputs": [
        {
          "internalType": "int256",
          "name": "",
          "type": "int256"
        }
      ],
      "stateMutability": "view",
      "type": "function"
    },
    {
      "inputs": [
        {
          "internalType": "uint256",
          "name": "x",
          "type": "uint256"
        }
      ],
      "name": "readRawDataByIndex",
      "outputs": [
        {
          "internalType": "int256",
          "name": "val",
          "type": "int256"
        },
        {
          "internalType": "uint8",
          "name": "decimal_places",
          "type": "uint8"
        }
      ],
      "stateMutability": "view",
      "type": "function"
    },
    {
      "inputs": [
        {
          "internalType": "uint256",
          "name": "x",
          "type": "uint256"
        }
      ],
      "name": "updateRate",
      "outputs": [],
      "stateMutability": "nonpayable",
      "type": "function"
    },
    {
      "inputs": [],
      "name": "avgRate",
      "outputs": [
        {
          "internalType": "int256",
          "name": "",
          "type": "int256"
        }
      ],
      "stateMutability": "view",
      "type": "function"
    },
    {
      "inputs": [],
      "name": "rawAvgRate",
      "outputs": [
        {
          "internalType": "int256",
          "name": "average",
          "type": "int256"
        },
        {
          "internalType": "uint8",
          "name": "decimal_places",
          "type": "uint8"
        }
      ],
      "stateMutability": "view",
      "type": "function"
    }
  ],
  "bytecode": "0x60806040526000805534801561001457600080fd5b50738a753747a1fa494ec906ce90e9f37563a8af630e600260006101000a81548173ffffffffffffffffffffffffffffffffffffffff021916908373ffffffffffffffffffffffffffffffffffffffff160217905550610aed806100796000396000f3fe608060405234801561001057600080fd5b50600436106100885760003560e01c806369ea17711161005b57806369ea177114610153578063838c63b714610181578063ac051d3f1461019f578063fb66daa8146101bd57610088565b80631193983b1461008d57806313e256e31461009757806337e7d67b146100c257806341b417ca14610111575b600080fd5b6100956101eb565b005b61009f61048b565b604051808381526020018260ff1660ff1681526020019250505060405180910390f35b6100ee600480360360208110156100d857600080fd5b810190808035906020019092919050505061051a565b604051808381526020018260ff1660ff1681526020019250505060405180910390f35b61013d6004803603602081101561012757600080fd5b8101908080359060200190929190505050610571565b6040518082815260200191505060405180910390f35b61017f6004803603602081101561016957600080fd5b81019080803590602001909291905050506105d8565b005b610189610858565b6040518082815260200191505060405180910390f35b6101a76108f1565b6040518082815260200191505060405180910390f35b6101e9600480360360208110156101d357600080fd5b81019080803590602001909291905050506108fa565b005b6000806000806000600260009054906101000a900473ffffffffffffffffffffffffffffffffffffffff1673ffffffffffffffffffffffffffffffffffffffff1663feaf968c6040518163ffffffff1660e01b815260040160a06040518083038186803b15801561025b57600080fd5b505afa15801561026f573d6000803e3d6000fd5b505050506040513d60a081101561028557600080fd5b810190808051906020019092919080519060200190929190805190602001909291908051906020019092919080519060200190929190505050945094509450945094506000821161033e576040517f08c379a00000000000000000000000000000000000000000000000000000000081526004018080602001828103825260128152602001807f526f756e64206e6f7420636f6d706c657465000000000000000000000000000081525060200191505060405180910390fd5b610346610a5a565b60005481600001818152505084816020018181525050600260009054906101000a900473ffffffffffffffffffffffffffffffffffffffff1673ffffffffffffffffffffffffffffffffffffffff1663313ce5676040518163ffffffff1660e01b815260040160206040518083038186803b1580156103c457600080fd5b505afa1580156103d8573d6000803e3d6000fd5b505050506040513d60208110156103ee57600080fd5b8101908080519060200190929190505050816040019060ff16908160ff16815250506001819080600181540180825580915050600190039060005260206000209060030201600090919091909150600082015181600001556020820151816001015560408201518160020160006101000a81548160ff021916908360ff160217905550505060016000808282540192505081905550505050505050565b600080600080905060008090505b6000548110156104d157600181815481106104b057fe5b90600052602060002090600302016001015482019150600181019050610499565b60005482816104dc57fe5b0591508160018060005403815481106104f157fe5b906000526020600020906003020160020160009054906101000a900460ff169350935050509091565b6000806001838154811061052a57fe5b9060005260206000209060030201600101546001848154811061054957fe5b906000526020600020906003020160020160009054906101000a900460ff1691509150915091565b6000806001838154811061058157fe5b906000526020600020906003020160020160009054906101000a900460ff1660ff16600a0a600184815481106105b357fe5b906000526020600020906003020160010154816105cc57fe5b05905080915050919050565b6000806000806000600260009054906101000a900473ffffffffffffffffffffffffffffffffffffffff1673ffffffffffffffffffffffffffffffffffffffff1663feaf968c6040518163ffffffff1660e01b815260040160a06040518083038186803b15801561064857600080fd5b505afa15801561065c573d6000803e3d6000fd5b505050506040513d60a081101561067257600080fd5b810190808051906020019092919080519060200190929190805190602001909291908051906020019092919080519060200190929190505050945094509450945094506000821161072b576040517f08c379a00000000000000000000000000000000000000000000000000000000081526004018080602001828103825260128152602001807f526f756e64206e6f7420636f6d706c657465000000000000000000000000000081525060200191505060405180910390fd5b610733610a5a565b8681600001818152505084816020018181525050600260009054906101000a900473ffffffffffffffffffffffffffffffffffffffff1673ffffffffffffffffffffffffffffffffffffffff1663313ce5676040518163ffffffff1660e01b815260040160206040518083038186803b1580156107af57600080fd5b505afa1580156107c3573d6000803e3d6000fd5b505050506040513d60208110156107d957600080fd5b8101908080519060200190929190505050816040019060ff16908160ff1681525050806001888154811061080957fe5b9060005260206000209060030201600082015181600001556020820151816001015560408201518160020160006101000a81548160ff021916908360ff16021790555090505050505050505050565b6000806000905060008090505b60005481101561089d576001818154811061087c57fe5b90600052602060002090600302016001015482019150600181019050610865565b60005482816108a857fe5b05915060018060005403815481106108bc57fe5b906000526020600020906003020160020160009054906101000a900460ff1660ff16600a0a82816108e957fe5b059250505090565b60008054905090565b6001600054038111158015610910575060008110155b610965576040517f08c379a0000000000000000000000000000000000000000000000000000000008152600401808060200182810382526039815260200180610a7f6039913960400191505060405180910390fd5b5b6001600054038110156109fd5760018082018154811061098257fe5b90600052602060002090600302016001828154811061099d57fe5b906000526020600020906003020160008201548160000155600182015481600101556002820160009054906101000a900460ff168160020160006101000a81548160ff021916908360ff1602179055509050508080600101915050610966565b6001805480610a0857fe5b600190038181906000526020600020906003020160008082016000905560018201600090556002820160006101000a81549060ff02191690555050905560008081548092919060019003919050555050565b60405180606001604052806000815260200160008152602001600060ff168152509056fe53657269616c20666f722072656d6f76616c206d757374206265206265747765656e207a65726f20616e642073746f72656452617465732d31a2646970667358221220ea341d2f582bd950b230d740b10b040f1e1dfc937bf92a1251f2cf27fbe0744064736f6c63430006070033",
  "immutableReferences": {},
  "source": "pragma solidity ^0.6.7;\r\n\r\nimport \"./AggregatorV3Interface.sol\";\r\n\r\n\r\ncontract DeFiEx {\r\n\r\n    struct convPrice{\r\n        uint serial;\r\n        int rate;\r\n        uint8 decimalPlaces;\r\n    }\r\n    \r\n    uint storedRates = 0;\r\n    convPrice[] excgRates;\r\n    AggregatorV3Interface internal priceFeed;\r\n\r\n    /**\r\n     * Network: Rinkeby\r\n     * Aggregator: ETH/USD\r\n     * Address: 0x8A753747A1Fa494EC906cE90E9f37563A8AF630e\r\n     */\r\n    constructor() public {\r\n        priceFeed = AggregatorV3Interface(0x8A753747A1Fa494EC906cE90E9f37563A8AF630e);\r\n    }\r\n\r\n    function noOfStoredRates() public view returns(uint){\r\n        return storedRates;\r\n    }\r\n    \r\n    function createRate() public {                          //Creates new entry in convPrice[] public excgRates at the back\r\n        (\r\n            uint80 roundID, \r\n            int price,\r\n            uint startedAt,\r\n            uint timeStamp,\r\n            uint80 answeredInRound\r\n        ) = priceFeed.latestRoundData();\r\n        // If the round is not complete yet, timestamp is 0\r\n        require(timeStamp > 0, \"Round not complete\");\r\n        convPrice memory a;\r\n        a.serial = storedRates;\r\n        a.rate = price;\r\n        a.decimalPlaces = priceFeed.decimals();\r\n        excgRates.push(a);\r\n        storedRates+=1;\r\n    }\r\n    \r\n    function deleteRateByIndex(uint x) public {                //Removes an enty of exchange rate in excgRates array\r\n        //x refers to the index of excgRate to be removed from array\r\n        require(x<=storedRates-1 && x>=0,\"Serial for removal must be between zero and storedRates-1\");\r\n        while(x<storedRates-1) {\r\n            excgRates[x] = excgRates[x+1];\r\n            x++;\r\n        }\r\n        excgRates.pop();\r\n        storedRates--;\r\n    }\r\n    \r\n    function readRateByIndex(uint x) public view returns (int) {        //Displays ceiling value of exchange rate\r\n        int a;\r\n        a = excgRates[x].rate / (int(10) ** excgRates[x].decimalPlaces);\r\n        return a;\r\n    }\r\n    \r\n    function readRawDataByIndex(uint x) public view returns(int val,uint8 decimal_places) {         //shows conversion rate and decimal places for it\r\n        return(excgRates[x].rate,excgRates[x].decimalPlaces);\r\n    }\r\n    \r\n    function updateRate(uint x) public {                //Updates rate value of given index\r\n        (\r\n            uint80 roundID, \r\n            int price,\r\n            uint startedAt,\r\n            uint timeStamp,\r\n            uint80 answeredInRound\r\n        ) = priceFeed.latestRoundData();\r\n        // If the round is not complete yet, timestamp is 0\r\n        require(timeStamp > 0, \"Round not complete\");\r\n        convPrice memory a;\r\n        a.serial = x;\r\n        a.rate = price;\r\n        a.decimalPlaces = priceFeed.decimals();\r\n        excgRates[x] = a;\r\n    }\r\n    \r\n    function avgRate() public view returns (int) {                   //Finds average conversion rate, ceiling value\r\n        int avg = 0;\r\n        uint i = 0;\r\n        while(i<storedRates) {\r\n            avg+=excgRates[i].rate;\r\n            i+=1;\r\n        }\r\n        avg = avg / int(storedRates);\r\n        return (avg/(int(10)**excgRates[storedRates-1].decimalPlaces));       //all convPrice entries share same decimal places\r\n    }\r\n    \r\n    function rawAvgRate() public view returns (int average,uint8 decimal_places) {                   //Shows avg conversion rate and decimal places for it\r\n        int avg = 0;\r\n        uint i = 0;\r\n        while(i<storedRates) {\r\n            avg += excgRates[i].rate;\r\n            i+=1;\r\n        }\r\n        avg = avg / int(storedRates);\r\n        return (avg , excgRates[storedRates-1].decimalPlaces);      //all convPrice entries share same decimal places\r\n    }\r\n}",
  "sourcePath": "C:/Users/Epiphany/Desktop/Blockchain Assignment Naman/contracts/DeFiEx.sol",
  "compiler": {
    "name": "solc",
    "version": "0.6.7+commit.b8d736ae.Emscripten.clang"
  },
  "schemaVersion": "3.4.0",
  "updatedAt": "2021-04-24T14:02:39.431Z",
  "devdoc": {
    "methods": {}
  },
  "userdoc": {
    "methods": {
      "constructor": "Network: Rinkeby Aggregator: ETH/USD Address: 0x8A753747A1Fa494EC906cE90E9f37563A8AF630e"
    }
  }
}